{
  "contractName": "CrowdFunding",
  "abi": [
    {
      "inputs": [
        {
          "internalType": "uint256",
          "name": "",
          "type": "uint256"
        }
      ],
      "name": "campaigns",
      "outputs": [
        {
          "internalType": "address",
          "name": "owner",
          "type": "address"
        },
        {
          "internalType": "string",
          "name": "title",
          "type": "string"
        },
        {
          "internalType": "string",
          "name": "description",
          "type": "string"
        },
        {
          "internalType": "uint256",
          "name": "target",
          "type": "uint256"
        },
        {
          "internalType": "uint256",
          "name": "deadline",
          "type": "uint256"
        },
        {
          "internalType": "uint256",
          "name": "amountCollected",
          "type": "uint256"
        }
      ],
      "stateMutability": "view",
      "type": "function",
      "constant": true
    },
    {
      "inputs": [],
      "name": "noOfCampaigns",
      "outputs": [
        {
          "internalType": "uint256",
          "name": "",
          "type": "uint256"
        }
      ],
      "stateMutability": "view",
      "type": "function",
      "constant": true
    },
    {
      "inputs": [
        {
          "internalType": "address",
          "name": "_owner",
          "type": "address"
        },
        {
          "internalType": "string",
          "name": "_title",
          "type": "string"
        },
        {
          "internalType": "string",
          "name": "_description",
          "type": "string"
        },
        {
          "internalType": "uint256",
          "name": "_target",
          "type": "uint256"
        },
        {
          "internalType": "uint256",
          "name": "_deadline",
          "type": "uint256"
        }
      ],
      "name": "createCampaign",
      "outputs": [
        {
          "internalType": "uint256",
          "name": "",
          "type": "uint256"
        }
      ],
      "stateMutability": "nonpayable",
      "type": "function"
    },
    {
      "inputs": [
        {
          "internalType": "uint256",
          "name": "_id",
          "type": "uint256"
        }
      ],
      "name": "donateToCampaign",
      "outputs": [],
      "stateMutability": "payable",
      "type": "function",
      "payable": true
    },
    {
      "inputs": [
        {
          "internalType": "uint256",
          "name": "_id",
          "type": "uint256"
        }
      ],
      "name": "getDonators",
      "outputs": [
        {
          "internalType": "address[]",
          "name": "",
          "type": "address[]"
        },
        {
          "internalType": "uint256[]",
          "name": "",
          "type": "uint256[]"
        }
      ],
      "stateMutability": "view",
      "type": "function",
      "constant": true
    },
    {
      "inputs": [],
      "name": "getCampaigns",
      "outputs": [
        {
          "components": [
            {
              "internalType": "address",
              "name": "owner",
              "type": "address"
            },
            {
              "internalType": "string",
              "name": "title",
              "type": "string"
            },
            {
              "internalType": "string",
              "name": "description",
              "type": "string"
            },
            {
              "internalType": "uint256",
              "name": "target",
              "type": "uint256"
            },
            {
              "internalType": "uint256",
              "name": "deadline",
              "type": "uint256"
            },
            {
              "internalType": "uint256",
              "name": "amountCollected",
              "type": "uint256"
            },
            {
              "internalType": "address[]",
              "name": "donators",
              "type": "address[]"
            },
            {
              "internalType": "uint256[]",
              "name": "donations",
              "type": "uint256[]"
            }
          ],
          "internalType": "struct CrowdFunding.Campaign[]",
          "name": "",
          "type": "tuple[]"
        }
      ],
      "stateMutability": "view",
      "type": "function",
      "constant": true
    }
  ],
  "bytecode": "0x6080604052600060015534801561001557600080fd5b506117e9806100256000396000f3fe6080604052600436106100555760003560e01c8063075843c31461005a5780630fa91fa914610097578063141961bc146100d557806317818e591461011757806342a4fda814610142578063a6b036331461015e575b600080fd5b34801561006657600080fd5b50610081600480360381019061007c9190610c18565b610189565b60405161008e9190610cda565b60405180910390f35b3480156100a357600080fd5b506100be60048036038101906100b99190610cf5565b61029d565b6040516100cc929190610e9e565b60405180910390f35b3480156100e157600080fd5b506100fc60048036038101906100f79190610cf5565b6103ad565b60405161010e96959493929190610f63565b60405180910390f35b34801561012357600080fd5b5061012c610519565b6040516101399190610cda565b60405180910390f35b61015c60048036038101906101579190610cf5565b61051f565b005b34801561016a57600080fd5b5061017361068b565b6040516101809190611281565b60405180910390f35b60008060008060015481526020019081526020016000209050428160040154106101e8576040517f08c379a00000000000000000000000000000000000000000000000000000000081526004016101df90611315565b60405180910390fd5b868160000160006101000a81548173ffffffffffffffffffffffffffffffffffffffff021916908373ffffffffffffffffffffffffffffffffffffffff1602179055508581600101908161023c9190611541565b508481600201908161024e9190611541565b50838160030181905550828160040181905550600081600501819055506001600081548092919061027e90611642565b919050555060018054610291919061168a565b91505095945050505050565b6060806000808481526020019081526020016000206006016000808581526020019081526020016000206007018180548060200260200160405190810160405280929190818152602001828054801561034b57602002820191906000526020600020905b8160009054906101000a900473ffffffffffffffffffffffffffffffffffffffff1673ffffffffffffffffffffffffffffffffffffffff1681526020019060010190808311610301575b505050505091508080548060200260200160405190810160405280929190818152602001828054801561039d57602002820191906000526020600020905b815481526020019060010190808311610389575b5050505050905091509150915091565b60006020528060005260406000206000915090508060000160009054906101000a900473ffffffffffffffffffffffffffffffffffffffff16908060010180546103f690611364565b80601f016020809104026020016040519081016040528092919081815260200182805461042290611364565b801561046f5780601f106104445761010080835404028352916020019161046f565b820191906000526020600020905b81548152906001019060200180831161045257829003601f168201915b50505050509080600201805461048490611364565b80601f01602080910402602001604051908101604052809291908181526020018280546104b090611364565b80156104fd5780601f106104d2576101008083540402835291602001916104fd565b820191906000526020600020905b8154815290600101906020018083116104e057829003601f168201915b5050505050908060030154908060040154908060050154905086565b60015481565b60003490506000806000848152602001908152602001600020905080600601339080600181540180825580915050600190039060005260206000200160009091909190916101000a81548173ffffffffffffffffffffffffffffffffffffffff021916908373ffffffffffffffffffffffffffffffffffffffff1602179055508060070182908060018154018082558091505060019003906000526020600020016000909190919091505560008160000160009054906101000a900473ffffffffffffffffffffffffffffffffffffffff1673ffffffffffffffffffffffffffffffffffffffff166108fc849081150290604051600060405180830381858888f193505050509050801561064a5782826005015461063d91906116be565b8260050181905550610685565b6040517f08c379a000000000000000000000000000000000000000000000000000000000815260040161067c90611764565b60405180910390fd5b50505050565b6060600060015467ffffffffffffffff8111156106ab576106aa610ab7565b5b6040519080825280602002602001820160405280156106e457816020015b6106d16109cf565b8152602001906001900390816106c95790505b50905060005b6001548110156109c7576000806000838152602001908152602001600020905080604051806101000160405290816000820160009054906101000a900473ffffffffffffffffffffffffffffffffffffffff1673ffffffffffffffffffffffffffffffffffffffff1673ffffffffffffffffffffffffffffffffffffffff16815260200160018201805461077d90611364565b80601f01602080910402602001604051908101604052809291908181526020018280546107a990611364565b80156107f65780601f106107cb576101008083540402835291602001916107f6565b820191906000526020600020905b8154815290600101906020018083116107d957829003601f168201915b5050505050815260200160028201805461080f90611364565b80601f016020809104026020016040519081016040528092919081815260200182805461083b90611364565b80156108885780601f1061085d57610100808354040283529160200191610888565b820191906000526020600020905b81548152906001019060200180831161086b57829003601f168201915b505050505081526020016003820154815260200160048201548152602001600582015481526020016006820180548060200260200160405190810160405280929190818152602001828054801561093457602002820191906000526020600020905b8160009054906101000a900473ffffffffffffffffffffffffffffffffffffffff1673ffffffffffffffffffffffffffffffffffffffff16815260200190600101908083116108ea575b505050505081526020016007820180548060200260200160405190810160405280929190818152602001828054801561098c57602002820191906000526020600020905b815481526020019060010190808311610978575b5050505050815250508383815181106109a8576109a7611784565b5b60200260200101819052505080806109bf90611642565b9150506106ea565b508091505090565b604051806101000160405280600073ffffffffffffffffffffffffffffffffffffffff168152602001606081526020016060815260200160008152602001600081526020016000815260200160608152602001606081525090565b6000604051905090565b600080fd5b600080fd5b600073ffffffffffffffffffffffffffffffffffffffff82169050919050565b6000610a6982610a3e565b9050919050565b610a7981610a5e565b8114610a8457600080fd5b50565b600081359050610a9681610a70565b92915050565b600080fd5b600080fd5b6000601f19601f8301169050919050565b7f4e487b7100000000000000000000000000000000000000000000000000000000600052604160045260246000fd5b610aef82610aa6565b810181811067ffffffffffffffff82111715610b0e57610b0d610ab7565b5b80604052505050565b6000610b21610a2a565b9050610b2d8282610ae6565b919050565b600067ffffffffffffffff821115610b4d57610b4c610ab7565b5b610b5682610aa6565b9050602081019050919050565b82818337600083830152505050565b6000610b85610b8084610b32565b610b17565b905082815260208101848484011115610ba157610ba0610aa1565b5b610bac848285610b63565b509392505050565b600082601f830112610bc957610bc8610a9c565b5b8135610bd9848260208601610b72565b91505092915050565b6000819050919050565b610bf581610be2565b8114610c0057600080fd5b50565b600081359050610c1281610bec565b92915050565b600080600080600060a08688031215610c3457610c33610a34565b5b6000610c4288828901610a87565b955050602086013567ffffffffffffffff811115610c6357610c62610a39565b5b610c6f88828901610bb4565b945050604086013567ffffffffffffffff811115610c9057610c8f610a39565b5b610c9c88828901610bb4565b9350506060610cad88828901610c03565b9250506080610cbe88828901610c03565b9150509295509295909350565b610cd481610be2565b82525050565b6000602082019050610cef6000830184610ccb565b92915050565b600060208284031215610d0b57610d0a610a34565b5b6000610d1984828501610c03565b91505092915050565b600081519050919050565b600082825260208201905092915050565b6000819050602082019050919050565b610d5781610a5e565b82525050565b6000610d698383610d4e565b60208301905092915050565b6000602082019050919050565b6000610d8d82610d22565b610d978185610d2d565b9350610da283610d3e565b8060005b83811015610dd3578151610dba8882610d5d565b9750610dc583610d75565b925050600181019050610da6565b5085935050505092915050565b600081519050919050565b600082825260208201905092915050565b6000819050602082019050919050565b610e1581610be2565b82525050565b6000610e278383610e0c565b60208301905092915050565b6000602082019050919050565b6000610e4b82610de0565b610e558185610deb565b9350610e6083610dfc565b8060005b83811015610e91578151610e788882610e1b565b9750610e8383610e33565b925050600181019050610e64565b5085935050505092915050565b60006040820190508181036000830152610eb88185610d82565b90508181036020830152610ecc8184610e40565b90509392505050565b610ede81610a5e565b82525050565b600081519050919050565b600082825260208201905092915050565b60005b83811015610f1e578082015181840152602081019050610f03565b60008484015250505050565b6000610f3582610ee4565b610f3f8185610eef565b9350610f4f818560208601610f00565b610f5881610aa6565b840191505092915050565b600060c082019050610f786000830189610ed5565b8181036020830152610f8a8188610f2a565b90508181036040830152610f9e8187610f2a565b9050610fad6060830186610ccb565b610fba6080830185610ccb565b610fc760a0830184610ccb565b979650505050505050565b600081519050919050565b600082825260208201905092915050565b6000819050602082019050919050565b600082825260208201905092915050565b600061101a82610ee4565b6110248185610ffe565b9350611034818560208601610f00565b61103d81610aa6565b840191505092915050565b600082825260208201905092915050565b600061106482610d22565b61106e8185611048565b935061107983610d3e565b8060005b838110156110aa5781516110918882610d5d565b975061109c83610d75565b92505060018101905061107d565b5085935050505092915050565b600082825260208201905092915050565b60006110d382610de0565b6110dd81856110b7565b93506110e883610dfc565b8060005b838110156111195781516111008882610e1b565b975061110b83610e33565b9250506001810190506110ec565b5085935050505092915050565b60006101008301600083015161113f6000860182610d4e565b5060208301518482036020860152611157828261100f565b91505060408301518482036040860152611171828261100f565b91505060608301516111866060860182610e0c565b5060808301516111996080860182610e0c565b5060a08301516111ac60a0860182610e0c565b5060c083015184820360c08601526111c48282611059565b91505060e083015184820360e08601526111de82826110c8565b9150508091505092915050565b60006111f78383611126565b905092915050565b6000602082019050919050565b600061121782610fd2565b6112218185610fdd565b93508360208202850161123385610fee565b8060005b8581101561126f578484038952815161125085826111eb565b945061125b836111ff565b925060208a01995050600181019050611237565b50829750879550505050505092915050565b6000602082019050818103600083015261129b818461120c565b905092915050565b7f54686520446561646c696e652073686f756c642062652061206461746520696e60008201527f2074686520667574757265000000000000000000000000000000000000000000602082015250565b60006112ff602b83610eef565b915061130a826112a3565b604082019050919050565b6000602082019050818103600083015261132e816112f2565b9050919050565b7f4e487b7100000000000000000000000000000000000000000000000000000000600052602260045260246000fd5b6000600282049050600182168061137c57607f821691505b60208210810361138f5761138e611335565b5b50919050565b60008190508160005260206000209050919050565b60006020601f8301049050919050565b600082821b905092915050565b6000600883026113f77fffffffffffffffffffffffffffffffffffffffffffffffffffffffffffffffff826113ba565b61140186836113ba565b95508019841693508086168417925050509392505050565b6000819050919050565b600061143e61143961143484610be2565b611419565b610be2565b9050919050565b6000819050919050565b61145883611423565b61146c61146482611445565b8484546113c7565b825550505050565b600090565b611481611474565b61148c81848461144f565b505050565b5b818110156114b0576114a5600082611479565b600181019050611492565b5050565b601f8211156114f5576114c681611395565b6114cf846113aa565b810160208510156114de578190505b6114f26114ea856113aa565b830182611491565b50505b505050565b600082821c905092915050565b6000611518600019846008026114fa565b1980831691505092915050565b60006115318383611507565b9150826002028217905092915050565b61154a82610ee4565b67ffffffffffffffff81111561156357611562610ab7565b5b61156d8254611364565b6115788282856114b4565b600060209050601f8311600181146115ab5760008415611599578287015190505b6115a38582611525565b86555061160b565b601f1984166115b986611395565b60005b828110156115e1578489015182556001820191506020850194506020810190506115bc565b868310156115fe57848901516115fa601f891682611507565b8355505b6001600288020188555050505b505050505050565b7f4e487b7100000000000000000000000000000000000000000000000000000000600052601160045260246000fd5b600061164d82610be2565b91507fffffffffffffffffffffffffffffffffffffffffffffffffffffffffffffffff820361167f5761167e611613565b5b600182019050919050565b600061169582610be2565b91506116a083610be2565b92508282039050818111156116b8576116b7611613565b5b92915050565b60006116c982610be2565b91506116d483610be2565b92508282019050808211156116ec576116eb611613565b5b92915050565b7f4661696c656420746f2073656e642066756e647320746f2063616d706169676e60008201527f206f776e65720000000000000000000000000000000000000000000000000000602082015250565b600061174e602683610eef565b9150611759826116f2565b604082019050919050565b6000602082019050818103600083015261177d81611741565b9050919050565b7f4e487b7100000000000000000000000000000000000000000000000000000000600052603260045260246000fdfea26469706673582212207468e10cf8c908d5f411a1252bcd702b8a8a5c2b9858528c1c2a2c97ef02f54964736f6c63430008120033",
  "immutableReferences": {},
  "source": "//SPDX-License-Identifier: MIT\r\npragma solidity ^0.8.0;\r\n\r\ncontract CrowdFunding{\r\n    struct Campaign{\r\n        address owner;  //creator of campaign\r\n        string title;\r\n        string description;\r\n        uint256 target; //target amt i wanna raise\r\n        uint256 deadline;   \r\n        uint256 amountCollected;\r\n        address[] donators; //donors of crowdfunding\r\n        uint256[] donations;    //donations by donors\r\n    }\r\n\r\n    mapping (uint256=> Campaign) public campaigns;  \r\n    //every CF will have unique campaign id which is passed in as parameter to give resp data for that campaign\r\n    // inside campaigns al data will be stored\r\n\r\n    uint256 public noOfCampaigns = 0;\r\n\r\n    function createCampaign (address _owner, string memory _title, string memory _description, uint256 _target, uint256 _deadline) public returns (uint256){\r\n        Campaign storage campaign = campaigns[noOfCampaigns];\r\n\r\n        require(campaign.deadline<block.timestamp, \"The Deadline should be a date in the future\");\r\n\r\n        campaign.owner = _owner;\r\n        campaign.title = _title;\r\n        campaign.description = _description;\r\n        campaign.target = _target;\r\n        campaign.deadline = _deadline;\r\n        campaign.amountCollected = 0;\r\n\r\n        noOfCampaigns++;\r\n\r\n        return noOfCampaigns - 1;\r\n    }\r\n\r\n    function donateToCampaign (uint256 _id) public payable{\r\n        uint256 amount = msg.value;\r\n\r\n        Campaign storage campaign = campaigns[_id];\r\n\r\n        campaign.donators.push(msg.sender);\r\n        campaign.donations.push(amount);\r\n\r\n        bool sent = payable(campaign.owner).send(amount);\r\n\r\n        if(sent){\r\n            campaign.amountCollected = campaign.amountCollected + amount;\r\n        }else{\r\n            // Handle failed payment here, revert transaction or emit an event\r\n        revert(\"Failed to send funds to campaign owner\");\r\n        }\r\n    \r\n    }\r\n\r\n    function getDonators(uint256 _id) view public returns (address[] memory, uint256[] memory){\r\n        return (campaigns[_id].donators, campaigns[_id].donations);\r\n    }\r\n\r\n    function getCampaigns() public view returns (Campaign[] memory){\r\n        Campaign[] memory allCampaigns = new Campaign[](noOfCampaigns);\r\n\r\n        for(uint i=0; i<noOfCampaigns; i++){\r\n            Campaign storage item = campaigns[i];\r\n            allCampaigns[i]=item;\r\n        }\r\n        return allCampaigns;\r\n    }\r\n\r\n}\r\n\r\n//npx hardhat node (run local blockchain)\r\n//npx hardhat run --network localhost scripts/deploy.js (deploy the contract)",
  "sourcePath": "D:\\mahaveer\\CrowdFunding-Platform\\truffle\\contracts\\CrowdFunding.sol",
  "compiler": {
    "name": "solc",
    "version": "0.8.18+commit.87f61d96.Emscripten.clang"
  },
  "schemaVersion": "3.4.16",
  "updatedAt": "2024-07-29T17:21:43.413Z",
  "networkType": "ethereum",
  "devdoc": {
    "kind": "dev",
    "methods": {},
    "version": 1
  },
  "userdoc": {
    "kind": "user",
    "methods": {},
    "version": 1
  }
}