{
  "_format": "hh-sol-artifact-1",
  "contractName": "CrowdFunding",
  "sourceName": "contracts/CrowdFunding.sol",
  "abi": [
    {
      "inputs": [
        {
          "internalType": "uint256",
          "name": "",
          "type": "uint256"
        }
      ],
      "name": "campaigns",
      "outputs": [
        {
          "internalType": "address",
          "name": "owner",
          "type": "address"
        },
        {
          "internalType": "string",
          "name": "title",
          "type": "string"
        },
        {
          "internalType": "string",
          "name": "description",
          "type": "string"
        },
        {
          "internalType": "uint256",
          "name": "target",
          "type": "uint256"
        },
        {
          "internalType": "uint256",
          "name": "deadline",
          "type": "uint256"
        },
        {
          "internalType": "uint256",
          "name": "amountCollected",
          "type": "uint256"
        }
      ],
      "stateMutability": "view",
      "type": "function"
    },
    {
      "inputs": [
        {
          "internalType": "address",
          "name": "_owner",
          "type": "address"
        },
        {
          "internalType": "string",
          "name": "_title",
          "type": "string"
        },
        {
          "internalType": "string",
          "name": "_description",
          "type": "string"
        },
        {
          "internalType": "uint256",
          "name": "_target",
          "type": "uint256"
        },
        {
          "internalType": "uint256",
          "name": "_deadline",
          "type": "uint256"
        }
      ],
      "name": "createCampaign",
      "outputs": [
        {
          "internalType": "uint256",
          "name": "",
          "type": "uint256"
        }
      ],
      "stateMutability": "nonpayable",
      "type": "function"
    },
    {
      "inputs": [
        {
          "internalType": "uint256",
          "name": "_id",
          "type": "uint256"
        }
      ],
      "name": "donateToCampaign",
      "outputs": [],
      "stateMutability": "payable",
      "type": "function"
    },
    {
      "inputs": [],
      "name": "getCampaigns",
      "outputs": [
        {
          "components": [
            {
              "internalType": "address",
              "name": "owner",
              "type": "address"
            },
            {
              "internalType": "string",
              "name": "title",
              "type": "string"
            },
            {
              "internalType": "string",
              "name": "description",
              "type": "string"
            },
            {
              "internalType": "uint256",
              "name": "target",
              "type": "uint256"
            },
            {
              "internalType": "uint256",
              "name": "deadline",
              "type": "uint256"
            },
            {
              "internalType": "uint256",
              "name": "amountCollected",
              "type": "uint256"
            },
            {
              "internalType": "address[]",
              "name": "donators",
              "type": "address[]"
            },
            {
              "internalType": "uint256[]",
              "name": "donations",
              "type": "uint256[]"
            }
          ],
          "internalType": "struct CrowdFunding.Campaign[]",
          "name": "",
          "type": "tuple[]"
        }
      ],
      "stateMutability": "view",
      "type": "function"
    },
    {
      "inputs": [
        {
          "internalType": "uint256",
          "name": "_id",
          "type": "uint256"
        }
      ],
      "name": "getDonators",
      "outputs": [
        {
          "internalType": "address[]",
          "name": "",
          "type": "address[]"
        },
        {
          "internalType": "uint256[]",
          "name": "",
          "type": "uint256[]"
        }
      ],
      "stateMutability": "view",
      "type": "function"
    },
    {
      "inputs": [],
      "name": "noOfCampaigns",
      "outputs": [
        {
          "internalType": "uint256",
          "name": "",
          "type": "uint256"
        }
      ],
      "stateMutability": "view",
      "type": "function"
    }
  ],
  "bytecode": "0x6080604052600060015534801561001557600080fd5b506117e3806100256000396000f3fe6080604052600436106100555760003560e01c8063075843c31461005a5780630fa91fa914610097578063141961bc146100d557806317818e591461011757806342a4fda814610142578063a6b036331461015e575b600080fd5b34801561006657600080fd5b50610081600480360381019061007c9190610c12565b610189565b60405161008e9190610cd4565b60405180910390f35b3480156100a357600080fd5b506100be60048036038101906100b99190610cef565b61029d565b6040516100cc929190610e98565b60405180910390f35b3480156100e157600080fd5b506100fc60048036038101906100f79190610cef565b6103ad565b60405161010e96959493929190610f5d565b60405180910390f35b34801561012357600080fd5b5061012c610519565b6040516101399190610cd4565b60405180910390f35b61015c60048036038101906101579190610cef565b61051f565b005b34801561016a57600080fd5b5061017361068b565b604051610180919061127b565b60405180910390f35b60008060008060015481526020019081526020016000209050428160040154106101e8576040517f08c379a00000000000000000000000000000000000000000000000000000000081526004016101df9061130f565b60405180910390fd5b868160000160006101000a81548173ffffffffffffffffffffffffffffffffffffffff021916908373ffffffffffffffffffffffffffffffffffffffff1602179055508581600101908161023c919061153b565b508481600201908161024e919061153b565b50838160030181905550828160040181905550600081600501819055506001600081548092919061027e9061163c565b9190505550600180546102919190611684565b91505095945050505050565b6060806000808481526020019081526020016000206006016000808581526020019081526020016000206007018180548060200260200160405190810160405280929190818152602001828054801561034b57602002820191906000526020600020905b8160009054906101000a900473ffffffffffffffffffffffffffffffffffffffff1673ffffffffffffffffffffffffffffffffffffffff1681526020019060010190808311610301575b505050505091508080548060200260200160405190810160405280929190818152602001828054801561039d57602002820191906000526020600020905b815481526020019060010190808311610389575b5050505050905091509150915091565b60006020528060005260406000206000915090508060000160009054906101000a900473ffffffffffffffffffffffffffffffffffffffff16908060010180546103f69061135e565b80601f01602080910402602001604051908101604052809291908181526020018280546104229061135e565b801561046f5780601f106104445761010080835404028352916020019161046f565b820191906000526020600020905b81548152906001019060200180831161045257829003601f168201915b5050505050908060020180546104849061135e565b80601f01602080910402602001604051908101604052809291908181526020018280546104b09061135e565b80156104fd5780601f106104d2576101008083540402835291602001916104fd565b820191906000526020600020905b8154815290600101906020018083116104e057829003601f168201915b5050505050908060030154908060040154908060050154905086565b60015481565b60003490506000806000848152602001908152602001600020905080600601339080600181540180825580915050600190039060005260206000200160009091909190916101000a81548173ffffffffffffffffffffffffffffffffffffffff021916908373ffffffffffffffffffffffffffffffffffffffff1602179055508060070182908060018154018082558091505060019003906000526020600020016000909190919091505560008160000160009054906101000a900473ffffffffffffffffffffffffffffffffffffffff1673ffffffffffffffffffffffffffffffffffffffff166108fc849081150290604051600060405180830381858888f193505050509050801561064a5782826005015461063d91906116b8565b8260050181905550610685565b6040517f08c379a000000000000000000000000000000000000000000000000000000000815260040161067c9061175e565b60405180910390fd5b50505050565b6060600060015467ffffffffffffffff8111156106ab576106aa610ab1565b5b6040519080825280602002602001820160405280156106e457816020015b6106d16109c9565b8152602001906001900390816106c95790505b50905060005b6001548110156109c1576000806000838152602001908152602001600020905080604051806101000160405290816000820160009054906101000a900473ffffffffffffffffffffffffffffffffffffffff1673ffffffffffffffffffffffffffffffffffffffff1673ffffffffffffffffffffffffffffffffffffffff16815260200160018201805461077d9061135e565b80601f01602080910402602001604051908101604052809291908181526020018280546107a99061135e565b80156107f65780601f106107cb576101008083540402835291602001916107f6565b820191906000526020600020905b8154815290600101906020018083116107d957829003601f168201915b5050505050815260200160028201805461080f9061135e565b80601f016020809104026020016040519081016040528092919081815260200182805461083b9061135e565b80156108885780601f1061085d57610100808354040283529160200191610888565b820191906000526020600020905b81548152906001019060200180831161086b57829003601f168201915b505050505081526020016003820154815260200160048201548152602001600582015481526020016006820180548060200260200160405190810160405280929190818152602001828054801561093457602002820191906000526020600020905b8160009054906101000a900473ffffffffffffffffffffffffffffffffffffffff1673ffffffffffffffffffffffffffffffffffffffff16815260200190600101908083116108ea575b505050505081526020016007820180548060200260200160405190810160405280929190818152602001828054801561098c57602002820191906000526020600020905b815481526020019060010190808311610978575b5050505050815250508383815181106109a8576109a761177e565b5b60200260200101819052505080806001019150506106ea565b508091505090565b604051806101000160405280600073ffffffffffffffffffffffffffffffffffffffff168152602001606081526020016060815260200160008152602001600081526020016000815260200160608152602001606081525090565b6000604051905090565b600080fd5b600080fd5b600073ffffffffffffffffffffffffffffffffffffffff82169050919050565b6000610a6382610a38565b9050919050565b610a7381610a58565b8114610a7e57600080fd5b50565b600081359050610a9081610a6a565b92915050565b600080fd5b600080fd5b6000601f19601f8301169050919050565b7f4e487b7100000000000000000000000000000000000000000000000000000000600052604160045260246000fd5b610ae982610aa0565b810181811067ffffffffffffffff82111715610b0857610b07610ab1565b5b80604052505050565b6000610b1b610a24565b9050610b278282610ae0565b919050565b600067ffffffffffffffff821115610b4757610b46610ab1565b5b610b5082610aa0565b9050602081019050919050565b82818337600083830152505050565b6000610b7f610b7a84610b2c565b610b11565b905082815260208101848484011115610b9b57610b9a610a9b565b5b610ba6848285610b5d565b509392505050565b600082601f830112610bc357610bc2610a96565b5b8135610bd3848260208601610b6c565b91505092915050565b6000819050919050565b610bef81610bdc565b8114610bfa57600080fd5b50565b600081359050610c0c81610be6565b92915050565b600080600080600060a08688031215610c2e57610c2d610a2e565b5b6000610c3c88828901610a81565b955050602086013567ffffffffffffffff811115610c5d57610c5c610a33565b5b610c6988828901610bae565b945050604086013567ffffffffffffffff811115610c8a57610c89610a33565b5b610c9688828901610bae565b9350506060610ca788828901610bfd565b9250506080610cb888828901610bfd565b9150509295509295909350565b610cce81610bdc565b82525050565b6000602082019050610ce96000830184610cc5565b92915050565b600060208284031215610d0557610d04610a2e565b5b6000610d1384828501610bfd565b91505092915050565b600081519050919050565b600082825260208201905092915050565b6000819050602082019050919050565b610d5181610a58565b82525050565b6000610d638383610d48565b60208301905092915050565b6000602082019050919050565b6000610d8782610d1c565b610d918185610d27565b9350610d9c83610d38565b8060005b83811015610dcd578151610db48882610d57565b9750610dbf83610d6f565b925050600181019050610da0565b5085935050505092915050565b600081519050919050565b600082825260208201905092915050565b6000819050602082019050919050565b610e0f81610bdc565b82525050565b6000610e218383610e06565b60208301905092915050565b6000602082019050919050565b6000610e4582610dda565b610e4f8185610de5565b9350610e5a83610df6565b8060005b83811015610e8b578151610e728882610e15565b9750610e7d83610e2d565b925050600181019050610e5e565b5085935050505092915050565b60006040820190508181036000830152610eb28185610d7c565b90508181036020830152610ec68184610e3a565b90509392505050565b610ed881610a58565b82525050565b600081519050919050565b600082825260208201905092915050565b60005b83811015610f18578082015181840152602081019050610efd565b60008484015250505050565b6000610f2f82610ede565b610f398185610ee9565b9350610f49818560208601610efa565b610f5281610aa0565b840191505092915050565b600060c082019050610f726000830189610ecf565b8181036020830152610f848188610f24565b90508181036040830152610f988187610f24565b9050610fa76060830186610cc5565b610fb46080830185610cc5565b610fc160a0830184610cc5565b979650505050505050565b600081519050919050565b600082825260208201905092915050565b6000819050602082019050919050565b600082825260208201905092915050565b600061101482610ede565b61101e8185610ff8565b935061102e818560208601610efa565b61103781610aa0565b840191505092915050565b600082825260208201905092915050565b600061105e82610d1c565b6110688185611042565b935061107383610d38565b8060005b838110156110a457815161108b8882610d57565b975061109683610d6f565b925050600181019050611077565b5085935050505092915050565b600082825260208201905092915050565b60006110cd82610dda565b6110d781856110b1565b93506110e283610df6565b8060005b838110156111135781516110fa8882610e15565b975061110583610e2d565b9250506001810190506110e6565b5085935050505092915050565b6000610100830160008301516111396000860182610d48565b50602083015184820360208601526111518282611009565b9150506040830151848203604086015261116b8282611009565b91505060608301516111806060860182610e06565b5060808301516111936080860182610e06565b5060a08301516111a660a0860182610e06565b5060c083015184820360c08601526111be8282611053565b91505060e083015184820360e08601526111d882826110c2565b9150508091505092915050565b60006111f18383611120565b905092915050565b6000602082019050919050565b600061121182610fcc565b61121b8185610fd7565b93508360208202850161122d85610fe8565b8060005b85811015611269578484038952815161124a85826111e5565b9450611255836111f9565b925060208a01995050600181019050611231565b50829750879550505050505092915050565b600060208201905081810360008301526112958184611206565b905092915050565b7f54686520446561646c696e652073686f756c642062652061206461746520696e60008201527f2074686520667574757265000000000000000000000000000000000000000000602082015250565b60006112f9602b83610ee9565b91506113048261129d565b604082019050919050565b60006020820190508181036000830152611328816112ec565b9050919050565b7f4e487b7100000000000000000000000000000000000000000000000000000000600052602260045260246000fd5b6000600282049050600182168061137657607f821691505b6020821081036113895761138861132f565b5b50919050565b60008190508160005260206000209050919050565b60006020601f8301049050919050565b600082821b905092915050565b6000600883026113f17fffffffffffffffffffffffffffffffffffffffffffffffffffffffffffffffff826113b4565b6113fb86836113b4565b95508019841693508086168417925050509392505050565b6000819050919050565b600061143861143361142e84610bdc565b611413565b610bdc565b9050919050565b6000819050919050565b6114528361141d565b61146661145e8261143f565b8484546113c1565b825550505050565b600090565b61147b61146e565b611486818484611449565b505050565b5b818110156114aa5761149f600082611473565b60018101905061148c565b5050565b601f8211156114ef576114c08161138f565b6114c9846113a4565b810160208510156114d8578190505b6114ec6114e4856113a4565b83018261148b565b50505b505050565b600082821c905092915050565b6000611512600019846008026114f4565b1980831691505092915050565b600061152b8383611501565b9150826002028217905092915050565b61154482610ede565b67ffffffffffffffff81111561155d5761155c610ab1565b5b611567825461135e565b6115728282856114ae565b600060209050601f8311600181146115a55760008415611593578287015190505b61159d858261151f565b865550611605565b601f1984166115b38661138f565b60005b828110156115db578489015182556001820191506020850194506020810190506115b6565b868310156115f857848901516115f4601f891682611501565b8355505b6001600288020188555050505b505050505050565b7f4e487b7100000000000000000000000000000000000000000000000000000000600052601160045260246000fd5b600061164782610bdc565b91507fffffffffffffffffffffffffffffffffffffffffffffffffffffffffffffffff82036116795761167861160d565b5b600182019050919050565b600061168f82610bdc565b915061169a83610bdc565b92508282039050818111156116b2576116b161160d565b5b92915050565b60006116c382610bdc565b91506116ce83610bdc565b92508282019050808211156116e6576116e561160d565b5b92915050565b7f4661696c656420746f2073656e642066756e647320746f2063616d706169676e60008201527f206f776e65720000000000000000000000000000000000000000000000000000602082015250565b6000611748602683610ee9565b9150611753826116ec565b604082019050919050565b600060208201905081810360008301526117778161173b565b9050919050565b7f4e487b7100000000000000000000000000000000000000000000000000000000600052603260045260246000fdfea26469706673582212208eee97167c2d81caae66dc983ec6352efd8db22926e255abaaa122ce2e111bda64736f6c63430008180033",
  "linkReferences": {},
  "deployedLinkReferences": {}
}